{
    "_format": "hh-sol-artifact-1",
    "contractName": "LifelineCert",
    "sourceName": "contracts/LifelineCert.sol",
    "abi": [
        {
            "inputs": [],
            "stateMutability": "nonpayable",
            "type": "constructor"
        },
        {
            "anonymous": false,
            "inputs": [
                {
                    "indexed": true,
                    "internalType": "address",
                    "name": "owner",
                    "type": "address"
                },
                {
                    "indexed": true,
                    "internalType": "address",
                    "name": "approved",
                    "type": "address"
                },
                {
                    "indexed": true,
                    "internalType": "uint256",
                    "name": "tokenId",
                    "type": "uint256"
                }
            ],
            "name": "Approval",
            "type": "event"
        },
        {
            "anonymous": false,
            "inputs": [
                {
                    "indexed": true,
                    "internalType": "address",
                    "name": "owner",
                    "type": "address"
                },
                {
                    "indexed": true,
                    "internalType": "address",
                    "name": "operator",
                    "type": "address"
                },
                {
                    "indexed": false,
                    "internalType": "bool",
                    "name": "approved",
                    "type": "bool"
                }
            ],
            "name": "ApprovalForAll",
            "type": "event"
        },
        {
            "anonymous": false,
            "inputs": [
                {
                    "indexed": false,
                    "internalType": "uint256",
                    "name": "_fromTokenId",
                    "type": "uint256"
                },
                {
                    "indexed": false,
                    "internalType": "uint256",
                    "name": "_toTokenId",
                    "type": "uint256"
                }
            ],
            "name": "BatchMetadataUpdate",
            "type": "event"
        },
        {
            "anonymous": false,
            "inputs": [
                {
                    "indexed": true,
                    "internalType": "uint256",
                    "name": "tokenId",
                    "type": "uint256"
                },
                {
                    "indexed": true,
                    "internalType": "address",
                    "name": "donor",
                    "type": "address"
                },
                {
                    "indexed": false,
                    "internalType": "string",
                    "name": "bloodType",
                    "type": "string"
                },
                {
                    "indexed": false,
                    "internalType": "string",
                    "name": "hospital",
                    "type": "string"
                },
                {
                    "indexed": false,
                    "internalType": "uint256",
                    "name": "donationDate",
                    "type": "uint256"
                }
            ],
            "name": "CertificateMinted",
            "type": "event"
        },
        {
            "anonymous": false,
            "inputs": [
                {
                    "indexed": false,
                    "internalType": "uint256",
                    "name": "_tokenId",
                    "type": "uint256"
                }
            ],
            "name": "MetadataUpdate",
            "type": "event"
        },
        {
            "anonymous": false,
            "inputs": [
                {
                    "indexed": true,
                    "internalType": "address",
                    "name": "previousOwner",
                    "type": "address"
                },
                {
                    "indexed": true,
                    "internalType": "address",
                    "name": "newOwner",
                    "type": "address"
                }
            ],
            "name": "OwnershipTransferred",
            "type": "event"
        },
        {
            "anonymous": false,
            "inputs": [
                {
                    "indexed": true,
                    "internalType": "address",
                    "name": "from",
                    "type": "address"
                },
                {
                    "indexed": true,
                    "internalType": "address",
                    "name": "to",
                    "type": "address"
                },
                {
                    "indexed": true,
                    "internalType": "uint256",
                    "name": "tokenId",
                    "type": "uint256"
                }
            ],
            "name": "Transfer",
            "type": "event"
        },
        {
            "inputs": [
                {
                    "internalType": "address",
                    "name": "to",
                    "type": "address"
                },
                {
                    "internalType": "uint256",
                    "name": "tokenId",
                    "type": "uint256"
                }
            ],
            "name": "approve",
            "outputs": [],
            "stateMutability": "nonpayable",
            "type": "function"
        },
        {
            "inputs": [
                {
                    "internalType": "address",
                    "name": "owner",
                    "type": "address"
                }
            ],
            "name": "balanceOf",
            "outputs": [
                {
                    "internalType": "uint256",
                    "name": "",
                    "type": "uint256"
                }
            ],
            "stateMutability": "view",
            "type": "function"
        },
        {
            "inputs": [
                {
                    "internalType": "uint256",
                    "name": "",
                    "type": "uint256"
                }
            ],
            "name": "donationRecords",
            "outputs": [
                {
                    "internalType": "string",
                    "name": "donorName",
                    "type": "string"
                },
                {
                    "internalType": "string",
                    "name": "bloodType",
                    "type": "string"
                },
                {
                    "internalType": "string",
                    "name": "hospital",
                    "type": "string"
                },
                {
                    "internalType": "string",
                    "name": "city",
                    "type": "string"
                },
                {
                    "internalType": "string",
                    "name": "doctorName",
                    "type": "string"
                },
                {
                    "internalType": "uint256",
                    "name": "donationDate",
                    "type": "uint256"
                },
                {
                    "internalType": "uint256",
                    "name": "units",
                    "type": "uint256"
                },
                {
                    "internalType": "bool",
                    "name": "verified",
                    "type": "bool"
                }
            ],
            "stateMutability": "view",
            "type": "function"
        },
        {
            "inputs": [
                {
                    "internalType": "address",
                    "name": "",
                    "type": "address"
                },
                {
                    "internalType": "uint256",
                    "name": "",
                    "type": "uint256"
                }
            ],
            "name": "donorTokens",
            "outputs": [
                {
                    "internalType": "uint256",
                    "name": "",
                    "type": "uint256"
                }
            ],
            "stateMutability": "view",
            "type": "function"
        },
        {
            "inputs": [
                {
                    "internalType": "uint256",
                    "name": "tokenId",
                    "type": "uint256"
                }
            ],
            "name": "getApproved",
            "outputs": [
                {
                    "internalType": "address",
                    "name": "",
                    "type": "address"
                }
            ],
            "stateMutability": "view",
            "type": "function"
        },
        {
            "inputs": [
                {
                    "internalType": "uint256",
                    "name": "_tokenId",
                    "type": "uint256"
                }
            ],
            "name": "getDonationRecord",
            "outputs": [
                {
                    "components": [
                        {
                            "internalType": "string",
                            "name": "donorName",
                            "type": "string"
                        },
                        {
                            "internalType": "string",
                            "name": "bloodType",
                            "type": "string"
                        },
                        {
                            "internalType": "string",
                            "name": "hospital",
                            "type": "string"
                        },
                        {
                            "internalType": "string",
                            "name": "city",
                            "type": "string"
                        },
                        {
                            "internalType": "string",
                            "name": "doctorName",
                            "type": "string"
                        },
                        {
                            "internalType": "uint256",
                            "name": "donationDate",
                            "type": "uint256"
                        },
                        {
                            "internalType": "uint256",
                            "name": "units",
                            "type": "uint256"
                        },
                        {
                            "internalType": "bool",
                            "name": "verified",
                            "type": "bool"
                        }
                    ],
                    "internalType": "struct LifelineCert.DonationRecord",
                    "name": "",
                    "type": "tuple"
                }
            ],
            "stateMutability": "view",
            "type": "function"
        },
        {
            "inputs": [
                {
                    "internalType": "address",
                    "name": "_donor",
                    "type": "address"
                }
            ],
            "name": "getDonorTokens",
            "outputs": [
                {
                    "internalType": "uint256[]",
                    "name": "",
                    "type": "uint256[]"
                }
            ],
            "stateMutability": "view",
            "type": "function"
        },
        {
            "inputs": [
                {
                    "internalType": "address",
                    "name": "owner",
                    "type": "address"
                },
                {
                    "internalType": "address",
                    "name": "operator",
                    "type": "address"
                }
            ],
            "name": "isApprovedForAll",
            "outputs": [
                {
                    "internalType": "bool",
                    "name": "",
                    "type": "bool"
                }
            ],
            "stateMutability": "view",
            "type": "function"
        },
        {
            "inputs": [],
            "name": "name",
            "outputs": [
                {
                    "internalType": "string",
                    "name": "",
                    "type": "string"
                }
            ],
            "stateMutability": "view",
            "type": "function"
        },
        {
            "inputs": [],
            "name": "owner",
            "outputs": [
                {
                    "internalType": "address",
                    "name": "",
                    "type": "address"
                }
            ],
            "stateMutability": "view",
            "type": "function"
        },
        {
            "inputs": [
                {
                    "internalType": "uint256",
                    "name": "tokenId",
                    "type": "uint256"
                }
            ],
            "name": "ownerOf",
            "outputs": [
                {
                    "internalType": "address",
                    "name": "",
                    "type": "address"
                }
            ],
            "stateMutability": "view",
            "type": "function"
        },
        {
            "inputs": [],
            "name": "renounceOwnership",
            "outputs": [],
            "stateMutability": "nonpayable",
            "type": "function"
        },
        {
            "inputs": [
                {
                    "internalType": "address",
                    "name": "from",
                    "type": "address"
                },
                {
                    "internalType": "address",
                    "name": "to",
                    "type": "address"
                },
                {
                    "internalType": "uint256",
                    "name": "tokenId",
                    "type": "uint256"
                }
            ],
            "name": "safeTransferFrom",
            "outputs": [],
            "stateMutability": "nonpayable",
            "type": "function"
        },
        {
            "inputs": [
                {
                    "internalType": "address",
                    "name": "from",
                    "type": "address"
                },
                {
                    "internalType": "address",
                    "name": "to",
                    "type": "address"
                },
                {
                    "internalType": "uint256",
                    "name": "tokenId",
                    "type": "uint256"
                },
                {
                    "internalType": "bytes",
                    "name": "data",
                    "type": "bytes"
                }
            ],
            "name": "safeTransferFrom",
            "outputs": [],
            "stateMutability": "nonpayable",
            "type": "function"
        },
        {
            "inputs": [
                {
                    "internalType": "string",
                    "name": "_donorName",
                    "type": "string"
                },
                {
                    "internalType": "string",
                    "name": "_bloodType",
                    "type": "string"
                },
                {
                    "internalType": "string",
                    "name": "_hospital",
                    "type": "string"
                },
                {
                    "internalType": "string",
                    "name": "_city",
                    "type": "string"
                },
                {
                    "internalType": "string",
                    "name": "_doctorName",
                    "type": "string"
                },
                {
                    "internalType": "uint256",
                    "name": "_donationDate",
                    "type": "uint256"
                },
                {
                    "internalType": "uint256",
                    "name": "_units",
                    "type": "uint256"
                },
                {
                    "internalType": "string",
                    "name": "_tokenURI",
                    "type": "string"
                }
            ],
            "name": "selfMintCertificate",
            "outputs": [
                {
                    "internalType": "uint256",
                    "name": "",
                    "type": "uint256"
                }
            ],
            "stateMutability": "nonpayable",
            "type": "function"
        },
        {
            "inputs": [
                {
                    "internalType": "address",
                    "name": "operator",
                    "type": "address"
                },
                {
                    "internalType": "bool",
                    "name": "approved",
                    "type": "bool"
                }
            ],
            "name": "setApprovalForAll",
            "outputs": [],
            "stateMutability": "nonpayable",
            "type": "function"
        },
        {
            "inputs": [
                {
                    "internalType": "bytes4",
                    "name": "interfaceId",
                    "type": "bytes4"
                }
            ],
            "name": "supportsInterface",
            "outputs": [
                {
                    "internalType": "bool",
                    "name": "",
                    "type": "bool"
                }
            ],
            "stateMutability": "view",
            "type": "function"
        },
        {
            "inputs": [],
            "name": "symbol",
            "outputs": [
                {
                    "internalType": "string",
                    "name": "",
                    "type": "string"
                }
            ],
            "stateMutability": "view",
            "type": "function"
        },
        {
            "inputs": [
                {
                    "internalType": "uint256",
                    "name": "tokenId",
                    "type": "uint256"
                }
            ],
            "name": "tokenURI",
            "outputs": [
                {
                    "internalType": "string",
                    "name": "",
                    "type": "string"
                }
            ],
            "stateMutability": "view",
            "type": "function"
        },
        {
            "inputs": [],
            "name": "totalMinted",
            "outputs": [
                {
                    "internalType": "uint256",
                    "name": "",
                    "type": "uint256"
                }
            ],
            "stateMutability": "view",
            "type": "function"
        },
        {
            "inputs": [
                {
                    "internalType": "address",
                    "name": "from",
                    "type": "address"
                },
                {
                    "internalType": "address",
                    "name": "to",
                    "type": "address"
                },
                {
                    "internalType": "uint256",
                    "name": "tokenId",
                    "type": "uint256"
                }
            ],
            "name": "transferFrom",
            "outputs": [],
            "stateMutability": "nonpayable",
            "type": "function"
        },
        {
            "inputs": [
                {
                    "internalType": "address",
                    "name": "newOwner",
                    "type": "address"
                }
            ],
            "name": "transferOwnership",
            "outputs": [],
            "stateMutability": "nonpayable",
            "type": "function"
        }
    ],
    "bytecode": "0x60806040523480156200001157600080fd5b506040518060400160405280601181526020017f4c6966656c696e65446f6e6f72436572740000000000000000000000000000008152506040518060400160405280600481526020017f4c4c44430000000000000000000000000000000000000000000000000000000081525081600090816200008f919062000412565b508060019081620000a1919062000412565b505050620000c4620000b8620000ca60201b60201c565b620000d260201b60201c565b620004f9565b600033905090565b6000600760009054906101000a900473ffffffffffffffffffffffffffffffffffffffff16905081600760006101000a81548173ffffffffffffffffffffffffffffffffffffffff021916908373ffffffffffffffffffffffffffffffffffffffff1602179055508173ffffffffffffffffffffffffffffffffffffffff168173ffffffffffffffffffffffffffffffffffffffff167f8be0079c531659141344cd1fd0a4f28419497f9722a3daafe3b4186f6b6457e060405160405180910390a35050565b600081519050919050565b7f4e487b7100000000000000000000000000000000000000000000000000000000600052604160045260246000fd5b7f4e487b7100000000000000000000000000000000000000000000000000000000600052602260045260246000fd5b600060028204905060018216806200021a57607f821691505b60208210810362000230576200022f620001d2565b5b50919050565b60008190508160005260206000209050919050565b60006020601f8301049050919050565b600082821b905092915050565b6000600883026200029a7fffffffffffffffffffffffffffffffffffffffffffffffffffffffffffffffff826200025b565b620002a686836200025b565b95508019841693508086168417925050509392505050565b6000819050919050565b6000819050919050565b6000620002f3620002ed620002e784620002be565b620002c8565b620002be565b9050919050565b6000819050919050565b6200030f83620002d2565b620003276200031e82620002fa565b84845462000268565b825550505050565b600090565b6200033e6200032f565b6200034b81848462000304565b505050565b5b8181101562000373576200036760008262000334565b60018101905062000351565b5050565b601f821115620003c2576200038c8162000236565b62000397846200024b565b81016020851015620003a7578190505b620003bf620003b6856200024b565b83018262000350565b50505b505050565b600082821c905092915050565b6000620003e760001984600802620003c7565b1980831691505092915050565b6000620004028383620003d4565b9150826002028217905092915050565b6200041d8262000198565b67ffffffffffffffff811115620004395762000438620001a3565b5b62000445825462000201565b6200045282828562000377565b600060209050601f8311600181146200048a576000841562000475578287015190505b620004818582620003f4565b865550620004f1565b601f1984166200049a8662000236565b60005b82811015620004c4578489015182556001820191506020850194506020810190506200049d565b86831015620004e45784890151620004e0601f891682620003d4565b8355505b6001600288020188555050505b505050505050565b613e2a80620005096000396000f3fe608060405234801561001057600080fd5b50600436106101425760003560e01c80638da5cb5b116100b8578063c87b56dd1161007c578063c87b56dd14610375578063e4b4a2b4146103a5578063e985e9c5146103d5578063ea40a0b614610405578063f2fde38b1461043c578063f3eb69ab1461045857610142565b80638da5cb5b146102e357806395d89b4114610301578063a22cb4651461031f578063a2309ff81461033b578063b88d4fde1461035957610142565b806330e8c73e1161010a57806330e8c73e146101fd5780633dad7d4c1461022d57806342842e0e1461025d5780636352211e1461027957806370a08231146102a9578063715018a6146102d957610142565b806301ffc9a71461014757806306fdde0314610177578063081812fc14610195578063095ea7b3146101c557806323b872dd146101e1575b600080fd5b610161600480360381019061015c9190612729565b610488565b60405161016e9190612771565b60405180910390f35b61017f6104e9565b60405161018c919061281c565b60405180910390f35b6101af60048036038101906101aa9190612874565b61057b565b6040516101bc91906128e2565b60405180910390f35b6101df60048036038101906101da9190612929565b6105c1565b005b6101fb60048036038101906101f69190612969565b6106d8565b005b61021760048036038101906102129190612af1565b610738565b6040516102249190612c5e565b60405180910390f35b61024760048036038101906102429190612874565b61092b565b6040516102549190612dad565b60405180910390f35b61027760048036038101906102729190612969565b610cd9565b005b610293600480360381019061028e9190612874565b610cf9565b6040516102a091906128e2565b60405180910390f35b6102c360048036038101906102be9190612dcf565b610d7f565b6040516102d09190612c5e565b60405180910390f35b6102e1610e36565b005b6102eb610e4a565b6040516102f891906128e2565b60405180910390f35b610309610e74565b604051610316919061281c565b60405180910390f35b61033960048036038101906103349190612e28565b610f06565b005b610343610f1c565b6040516103509190612c5e565b60405180910390f35b610373600480360381019061036e9190612f09565b610f26565b005b61038f600480360381019061038a9190612874565b610f88565b60405161039c919061281c565b60405180910390f35b6103bf60048036038101906103ba9190612dcf565b61109a565b6040516103cc919061303b565b60405180910390f35b6103ef60048036038101906103ea919061305d565b611131565b6040516103fc9190612771565b60405180910390f35b61041f600480360381019061041a9190612874565b6111c5565b60405161043398979695949392919061309d565b60405180910390f35b61045660048036038101906104519190612dcf565b6114c2565b005b610472600480360381019061046d9190612929565b611545565b60405161047f9190612c5e565b60405180910390f35b6000634906490660e01b7bffffffffffffffffffffffffffffffffffffffffffffffffffffffff1916827bffffffffffffffffffffffffffffffffffffffffffffffffffffffff191614806104e257506104e182611576565b5b9050919050565b6060600080546104f89061316d565b80601f01602080910402602001604051908101604052809291908181526020018280546105249061316d565b80156105715780601f1061054657610100808354040283529160200191610571565b820191906000526020600020905b81548152906001019060200180831161055457829003601f168201915b5050505050905090565b600061058682611658565b6004600083815260200190815260200160002060009054906101000a900473ffffffffffffffffffffffffffffffffffffffff169050919050565b60006105cc82610cf9565b90508073ffffffffffffffffffffffffffffffffffffffff168373ffffffffffffffffffffffffffffffffffffffff160361063c576040517f08c379a000000000000000000000000000000000000000000000000000000000815260040161063390613210565b60405180910390fd5b8073ffffffffffffffffffffffffffffffffffffffff1661065b6116a3565b73ffffffffffffffffffffffffffffffffffffffff16148061068a5750610689816106846116a3565b611131565b5b6106c9576040517f08c379a00000000000000000000000000000000000000000000000000000000081526004016106c0906132a2565b60405180910390fd5b6106d383836116ab565b505050565b6106e96106e36116a3565b82611764565b610728576040517f08c379a000000000000000000000000000000000000000000000000000000000815260040161071f90613334565b60405180910390fd5b6107338383836117f9565b505050565b60006008600081548092919061074d90613383565b9190505550600060085490506107633382611af2565b61076d8184611b10565b6040518061010001604052808b81526020018a8152602001898152602001888152602001878152602001868152602001858152602001600015158152506009600083815260200190815260200160002060008201518160000190816107d29190613577565b5060208201518160010190816107e89190613577565b5060408201518160020190816107fe9190613577565b5060608201518160030190816108149190613577565b50608082015181600401908161082a9190613577565b5060a0820151816005015560c0820151816006015560e08201518160070160006101000a81548160ff021916908315150217905550905050600a60003373ffffffffffffffffffffffffffffffffffffffff1673ffffffffffffffffffffffffffffffffffffffff1681526020019081526020016000208190806001815401808255809150506001900390600052602060002001600090919091909150553373ffffffffffffffffffffffffffffffffffffffff16817fa220121dae68feb03eca9f5b9665acae4c4eae049ae4819148b54b48aff0b71e8b8b8960405161091393929190613649565b60405180910390a38091505098975050505050505050565b610933612676565b600073ffffffffffffffffffffffffffffffffffffffff1661095483610cf9565b73ffffffffffffffffffffffffffffffffffffffff16036109aa576040517f08c379a00000000000000000000000000000000000000000000000000000000081526004016109a1906136da565b60405180910390fd5b60096000838152602001908152602001600020604051806101000160405290816000820180546109d99061316d565b80601f0160208091040260200160405190810160405280929190818152602001828054610a059061316d565b8015610a525780601f10610a2757610100808354040283529160200191610a52565b820191906000526020600020905b815481529060010190602001808311610a3557829003601f168201915b50505050508152602001600182018054610a6b9061316d565b80601f0160208091040260200160405190810160405280929190818152602001828054610a979061316d565b8015610ae45780601f10610ab957610100808354040283529160200191610ae4565b820191906000526020600020905b815481529060010190602001808311610ac757829003601f168201915b50505050508152602001600282018054610afd9061316d565b80601f0160208091040260200160405190810160405280929190818152602001828054610b299061316d565b8015610b765780601f10610b4b57610100808354040283529160200191610b76565b820191906000526020600020905b815481529060010190602001808311610b5957829003601f168201915b50505050508152602001600382018054610b8f9061316d565b80601f0160208091040260200160405190810160405280929190818152602001828054610bbb9061316d565b8015610c085780601f10610bdd57610100808354040283529160200191610c08565b820191906000526020600020905b815481529060010190602001808311610beb57829003601f168201915b50505050508152602001600482018054610c219061316d565b80601f0160208091040260200160405190810160405280929190818152602001828054610c4d9061316d565b8015610c9a5780601f10610c6f57610100808354040283529160200191610c9a565b820191906000526020600020905b815481529060010190602001808311610c7d57829003601f168201915b5050505050815260200160058201548152602001600682015481526020016007820160009054906101000a900460ff1615151515815250509050919050565b610cf483838360405180602001604052806000815250610f26565b505050565b600080610d0583611bb4565b9050600073ffffffffffffffffffffffffffffffffffffffff168173ffffffffffffffffffffffffffffffffffffffff1603610d76576040517f08c379a0000000000000000000000000000000000000000000000000000000008152600401610d6d90613746565b60405180910390fd5b80915050919050565b60008073ffffffffffffffffffffffffffffffffffffffff168273ffffffffffffffffffffffffffffffffffffffff1603610def576040517f08c379a0000000000000000000000000000000000000000000000000000000008152600401610de6906137d8565b60405180910390fd5b600360008373ffffffffffffffffffffffffffffffffffffffff1673ffffffffffffffffffffffffffffffffffffffff168152602001908152602001600020549050919050565b610e3e611bf1565b610e486000611c6f565b565b6000600760009054906101000a900473ffffffffffffffffffffffffffffffffffffffff16905090565b606060018054610e839061316d565b80601f0160208091040260200160405190810160405280929190818152602001828054610eaf9061316d565b8015610efc5780601f10610ed157610100808354040283529160200191610efc565b820191906000526020600020905b815481529060010190602001808311610edf57829003601f168201915b5050505050905090565b610f18610f116116a3565b8383611d35565b5050565b6000600854905090565b610f37610f316116a3565b83611764565b610f76576040517f08c379a0000000000000000000000000000000000000000000000000000000008152600401610f6d90613334565b60405180910390fd5b610f8284848484611ea1565b50505050565b6060610f9382611658565b6000600660008481526020019081526020016000208054610fb39061316d565b80601f0160208091040260200160405190810160405280929190818152602001828054610fdf9061316d565b801561102c5780601f106110015761010080835404028352916020019161102c565b820191906000526020600020905b81548152906001019060200180831161100f57829003601f168201915b50505050509050600061103d611efd565b90506000815103611052578192505050611095565b60008251111561108757808260405160200161106f929190613834565b60405160208183030381529060405292505050611095565b61109084611f14565b925050505b919050565b6060600a60008373ffffffffffffffffffffffffffffffffffffffff1673ffffffffffffffffffffffffffffffffffffffff16815260200190815260200160002080548060200260200160405190810160405280929190818152602001828054801561112557602002820191906000526020600020905b815481526020019060010190808311611111575b50505050509050919050565b6000600560008473ffffffffffffffffffffffffffffffffffffffff1673ffffffffffffffffffffffffffffffffffffffff16815260200190815260200160002060008373ffffffffffffffffffffffffffffffffffffffff1673ffffffffffffffffffffffffffffffffffffffff16815260200190815260200160002060009054906101000a900460ff16905092915050565b60096020528060005260406000206000915090508060000180546111e89061316d565b80601f01602080910402602001604051908101604052809291908181526020018280546112149061316d565b80156112615780601f1061123657610100808354040283529160200191611261565b820191906000526020600020905b81548152906001019060200180831161124457829003601f168201915b5050505050908060010180546112769061316d565b80601f01602080910402602001604051908101604052809291908181526020018280546112a29061316d565b80156112ef5780601f106112c4576101008083540402835291602001916112ef565b820191906000526020600020905b8154815290600101906020018083116112d257829003601f168201915b5050505050908060020180546113049061316d565b80601f01602080910402602001604051908101604052809291908181526020018280546113309061316d565b801561137d5780601f106113525761010080835404028352916020019161137d565b820191906000526020600020905b81548152906001019060200180831161136057829003601f168201915b5050505050908060030180546113929061316d565b80601f01602080910402602001604051908101604052809291908181526020018280546113be9061316d565b801561140b5780601f106113e05761010080835404028352916020019161140b565b820191906000526020600020905b8154815290600101906020018083116113ee57829003601f168201915b5050505050908060040180546114209061316d565b80601f016020809104026020016040519081016040528092919081815260200182805461144c9061316d565b80156114995780601f1061146e57610100808354040283529160200191611499565b820191906000526020600020905b81548152906001019060200180831161147c57829003601f168201915b5050505050908060050154908060060154908060070160009054906101000a900460ff16905088565b6114ca611bf1565b600073ffffffffffffffffffffffffffffffffffffffff168173ffffffffffffffffffffffffffffffffffffffff1603611539576040517f08c379a0000000000000000000000000000000000000000000000000000000008152600401611530906138ca565b60405180910390fd5b61154281611c6f565b50565b600a602052816000526040600020818154811061156157600080fd5b90600052602060002001600091509150505481565b60007f80ac58cd000000000000000000000000000000000000000000000000000000007bffffffffffffffffffffffffffffffffffffffffffffffffffffffff1916827bffffffffffffffffffffffffffffffffffffffffffffffffffffffff1916148061164157507f5b5e139f000000000000000000000000000000000000000000000000000000007bffffffffffffffffffffffffffffffffffffffffffffffffffffffff1916827bffffffffffffffffffffffffffffffffffffffffffffffffffffffff1916145b80611651575061165082611f7c565b5b9050919050565b61166181611fe6565b6116a0576040517f08c379a000000000000000000000000000000000000000000000000000000000815260040161169790613746565b60405180910390fd5b50565b600033905090565b816004600083815260200190815260200160002060006101000a81548173ffffffffffffffffffffffffffffffffffffffff021916908373ffffffffffffffffffffffffffffffffffffffff160217905550808273ffffffffffffffffffffffffffffffffffffffff1661171e83610cf9565b73ffffffffffffffffffffffffffffffffffffffff167f8c5be1e5ebec7d5bd14f71427d1e84f3dd0314c0f7b2291e5b200ac8c7c3b92560405160405180910390a45050565b60008061177083610cf9565b90508073ffffffffffffffffffffffffffffffffffffffff168473ffffffffffffffffffffffffffffffffffffffff1614806117b257506117b18185611131565b5b806117f057508373ffffffffffffffffffffffffffffffffffffffff166117d88461057b565b73ffffffffffffffffffffffffffffffffffffffff16145b91505092915050565b8273ffffffffffffffffffffffffffffffffffffffff1661181982610cf9565b73ffffffffffffffffffffffffffffffffffffffff161461186f576040517f08c379a00000000000000000000000000000000000000000000000000000000081526004016118669061395c565b60405180910390fd5b600073ffffffffffffffffffffffffffffffffffffffff168273ffffffffffffffffffffffffffffffffffffffff16036118de576040517f08c379a00000000000000000000000000000000000000000000000000000000081526004016118d5906139ee565b60405180910390fd5b6118eb8383836001612027565b8273ffffffffffffffffffffffffffffffffffffffff1661190b82610cf9565b73ffffffffffffffffffffffffffffffffffffffff1614611961576040517f08c379a00000000000000000000000000000000000000000000000000000000081526004016119589061395c565b60405180910390fd5b6004600082815260200190815260200160002060006101000a81549073ffffffffffffffffffffffffffffffffffffffff02191690556001600360008573ffffffffffffffffffffffffffffffffffffffff1673ffffffffffffffffffffffffffffffffffffffff168152602001908152602001600020600082825403925050819055506001600360008473ffffffffffffffffffffffffffffffffffffffff1673ffffffffffffffffffffffffffffffffffffffff16815260200190815260200160002060008282540192505081905550816002600083815260200190815260200160002060006101000a81548173ffffffffffffffffffffffffffffffffffffffff021916908373ffffffffffffffffffffffffffffffffffffffff160217905550808273ffffffffffffffffffffffffffffffffffffffff168473ffffffffffffffffffffffffffffffffffffffff167fddf252ad1be2c89b69c2b068fc378daa952ba7f163c4a11628f55a4df523b3ef60405160405180910390a4611aed838383600161202d565b505050565b611b0c828260405180602001604052806000815250612033565b5050565b611b1982611fe6565b611b58576040517f08c379a0000000000000000000000000000000000000000000000000000000008152600401611b4f90613a80565b60405180910390fd5b80600660008481526020019081526020016000209081611b789190613577565b507ff8e1a15aba9398e019f0b49df1a4fde98ee17ae345cb5f6b5e2c27f5033e8ce782604051611ba89190612c5e565b60405180910390a15050565b60006002600083815260200190815260200160002060009054906101000a900473ffffffffffffffffffffffffffffffffffffffff169050919050565b611bf96116a3565b73ffffffffffffffffffffffffffffffffffffffff16611c17610e4a565b73ffffffffffffffffffffffffffffffffffffffff1614611c6d576040517f08c379a0000000000000000000000000000000000000000000000000000000008152600401611c6490613aec565b60405180910390fd5b565b6000600760009054906101000a900473ffffffffffffffffffffffffffffffffffffffff16905081600760006101000a81548173ffffffffffffffffffffffffffffffffffffffff021916908373ffffffffffffffffffffffffffffffffffffffff1602179055508173ffffffffffffffffffffffffffffffffffffffff168173ffffffffffffffffffffffffffffffffffffffff167f8be0079c531659141344cd1fd0a4f28419497f9722a3daafe3b4186f6b6457e060405160405180910390a35050565b8173ffffffffffffffffffffffffffffffffffffffff168373ffffffffffffffffffffffffffffffffffffffff1603611da3576040517f08c379a0000000000000000000000000000000000000000000000000000000008152600401611d9a90613b58565b60405180910390fd5b80600560008573ffffffffffffffffffffffffffffffffffffffff1673ffffffffffffffffffffffffffffffffffffffff16815260200190815260200160002060008473ffffffffffffffffffffffffffffffffffffffff1673ffffffffffffffffffffffffffffffffffffffff16815260200190815260200160002060006101000a81548160ff0219169083151502179055508173ffffffffffffffffffffffffffffffffffffffff168373ffffffffffffffffffffffffffffffffffffffff167f17307eab39ab6107e8899845ad3d59bd9653f200f220920489ca2b5937696c3183604051611e949190612771565b60405180910390a3505050565b611eac8484846117f9565b611eb88484848461208e565b611ef7576040517f08c379a0000000000000000000000000000000000000000000000000000000008152600401611eee90613bea565b60405180910390fd5b50505050565b606060405180602001604052806000815250905090565b6060611f1f82611658565b6000611f29611efd565b90506000815111611f495760405180602001604052806000815250611f74565b80611f5384612215565b604051602001611f64929190613834565b6040516020818303038152906040525b915050919050565b60007f01ffc9a7000000000000000000000000000000000000000000000000000000007bffffffffffffffffffffffffffffffffffffffffffffffffffffffff1916827bffffffffffffffffffffffffffffffffffffffffffffffffffffffff1916149050919050565b60008073ffffffffffffffffffffffffffffffffffffffff1661200883611bb4565b73ffffffffffffffffffffffffffffffffffffffff1614159050919050565b50505050565b50505050565b61203d83836122e3565b61204a600084848461208e565b612089576040517f08c379a000000000000000000000000000000000000000000000000000000000815260040161208090613bea565b60405180910390fd5b505050565b60006120af8473ffffffffffffffffffffffffffffffffffffffff16612500565b15612208578373ffffffffffffffffffffffffffffffffffffffff1663150b7a026120d86116a3565b8786866040518563ffffffff1660e01b81526004016120fa9493929190613c5f565b6020604051808303816000875af192505050801561213657506040513d601f19601f820116820180604052508101906121339190613cc0565b60015b6121b8573d8060008114612166576040519150601f19603f3d011682016040523d82523d6000602084013e61216b565b606091505b5060008151036121b0576040517f08c379a00000000000000000000000000000000000000000000000000000000081526004016121a790613bea565b60405180910390fd5b805181602001fd5b63150b7a0260e01b7bffffffffffffffffffffffffffffffffffffffffffffffffffffffff1916817bffffffffffffffffffffffffffffffffffffffffffffffffffffffff19161491505061220d565b600190505b949350505050565b60606000600161222484612523565b01905060008167ffffffffffffffff811115612243576122426129c6565b5b6040519080825280601f01601f1916602001820160405280156122755781602001600182028036833780820191505090505b509050600082602001820190505b6001156122d8578080600190039150507f3031323334353637383961626364656600000000000000000000000000000000600a86061a8153600a85816122cc576122cb613ced565b5b04945060008503612283575b819350505050919050565b600073ffffffffffffffffffffffffffffffffffffffff168273ffffffffffffffffffffffffffffffffffffffff1603612352576040517f08c379a000000000000000000000000000000000000000000000000000000000815260040161234990613d68565b60405180910390fd5b61235b81611fe6565b1561239b576040517f08c379a000000000000000000000000000000000000000000000000000000000815260040161239290613dd4565b60405180910390fd5b6123a9600083836001612027565b6123b281611fe6565b156123f2576040517f08c379a00000000000000000000000000000000000000000000000000000000081526004016123e990613dd4565b60405180910390fd5b6001600360008473ffffffffffffffffffffffffffffffffffffffff1673ffffffffffffffffffffffffffffffffffffffff16815260200190815260200160002060008282540192505081905550816002600083815260200190815260200160002060006101000a81548173ffffffffffffffffffffffffffffffffffffffff021916908373ffffffffffffffffffffffffffffffffffffffff160217905550808273ffffffffffffffffffffffffffffffffffffffff16600073ffffffffffffffffffffffffffffffffffffffff167fddf252ad1be2c89b69c2b068fc378daa952ba7f163c4a11628f55a4df523b3ef60405160405180910390a46124fc60008383600161202d565b5050565b6000808273ffffffffffffffffffffffffffffffffffffffff163b119050919050565b600080600090507a184f03e93ff9f4daa797ed6e38ed64bf6a1f0100000000000000008310612581577a184f03e93ff9f4daa797ed6e38ed64bf6a1f010000000000000000838161257757612576613ced565b5b0492506040810190505b6d04ee2d6d415b85acef810000000083106125be576d04ee2d6d415b85acef810000000083816125b4576125b3613ced565b5b0492506020810190505b662386f26fc1000083106125ed57662386f26fc1000083816125e3576125e2613ced565b5b0492506010810190505b6305f5e1008310612616576305f5e100838161260c5761260b613ced565b5b0492506008810190505b612710831061263b57612710838161263157612630613ced565b5b0492506004810190505b6064831061265e576064838161265457612653613ced565b5b0492506002810190505b600a831061266d576001810190505b80915050919050565b604051806101000160405280606081526020016060815260200160608152602001606081526020016060815260200160008152602001600081526020016000151581525090565b6000604051905090565b600080fd5b600080fd5b60007fffffffff0000000000000000000000000000000000000000000000000000000082169050919050565b612706816126d1565b811461271157600080fd5b50565b600081359050612723816126fd565b92915050565b60006020828403121561273f5761273e6126c7565b5b600061274d84828501612714565b91505092915050565b60008115159050919050565b61276b81612756565b82525050565b60006020820190506127866000830184612762565b92915050565b600081519050919050565b600082825260208201905092915050565b60005b838110156127c65780820151818401526020810190506127ab565b60008484015250505050565b6000601f19601f8301169050919050565b60006127ee8261278c565b6127f88185612797565b93506128088185602086016127a8565b612811816127d2565b840191505092915050565b6000602082019050818103600083015261283681846127e3565b905092915050565b6000819050919050565b6128518161283e565b811461285c57600080fd5b50565b60008135905061286e81612848565b92915050565b60006020828403121561288a576128896126c7565b5b60006128988482850161285f565b91505092915050565b600073ffffffffffffffffffffffffffffffffffffffff82169050919050565b60006128cc826128a1565b9050919050565b6128dc816128c1565b82525050565b60006020820190506128f760008301846128d3565b92915050565b612906816128c1565b811461291157600080fd5b50565b600081359050612923816128fd565b92915050565b600080604083850312156129405761293f6126c7565b5b600061294e85828601612914565b925050602061295f8582860161285f565b9150509250929050565b600080600060608486031215612982576129816126c7565b5b600061299086828701612914565b93505060206129a186828701612914565b92505060406129b28682870161285f565b9150509250925092565b600080fd5b600080fd5b7f4e487b7100000000000000000000000000000000000000000000000000000000600052604160045260246000fd5b6129fe826127d2565b810181811067ffffffffffffffff82111715612a1d57612a1c6129c6565b5b80604052505050565b6000612a306126bd565b9050612a3c82826129f5565b919050565b600067ffffffffffffffff821115612a5c57612a5b6129c6565b5b612a65826127d2565b9050602081019050919050565b82818337600083830152505050565b6000612a94612a8f84612a41565b612a26565b905082815260208101848484011115612ab057612aaf6129c1565b5b612abb848285612a72565b509392505050565b600082601f830112612ad857612ad76129bc565b5b8135612ae8848260208601612a81565b91505092915050565b600080600080600080600080610100898b031215612b1257612b116126c7565b5b600089013567ffffffffffffffff811115612b3057612b2f6126cc565b5b612b3c8b828c01612ac3565b985050602089013567ffffffffffffffff811115612b5d57612b5c6126cc565b5b612b698b828c01612ac3565b975050604089013567ffffffffffffffff811115612b8a57612b896126cc565b5b612b968b828c01612ac3565b965050606089013567ffffffffffffffff811115612bb757612bb66126cc565b5b612bc38b828c01612ac3565b955050608089013567ffffffffffffffff811115612be457612be36126cc565b5b612bf08b828c01612ac3565b94505060a0612c018b828c0161285f565b93505060c0612c128b828c0161285f565b92505060e089013567ffffffffffffffff811115612c3357612c326126cc565b5b612c3f8b828c01612ac3565b9150509295985092959890939650565b612c588161283e565b82525050565b6000602082019050612c736000830184612c4f565b92915050565b600082825260208201905092915050565b6000612c958261278c565b612c9f8185612c79565b9350612caf8185602086016127a8565b612cb8816127d2565b840191505092915050565b612ccc8161283e565b82525050565b612cdb81612756565b82525050565b6000610100830160008301518482036000860152612cff8282612c8a565b91505060208301518482036020860152612d198282612c8a565b91505060408301518482036040860152612d338282612c8a565b91505060608301518482036060860152612d4d8282612c8a565b91505060808301518482036080860152612d678282612c8a565b91505060a0830151612d7c60a0860182612cc3565b5060c0830151612d8f60c0860182612cc3565b5060e0830151612da260e0860182612cd2565b508091505092915050565b60006020820190508181036000830152612dc78184612ce1565b905092915050565b600060208284031215612de557612de46126c7565b5b6000612df384828501612914565b91505092915050565b612e0581612756565b8114612e1057600080fd5b50565b600081359050612e2281612dfc565b92915050565b60008060408385031215612e3f57612e3e6126c7565b5b6000612e4d85828601612914565b9250506020612e5e85828601612e13565b9150509250929050565b600067ffffffffffffffff821115612e8357612e826129c6565b5b612e8c826127d2565b9050602081019050919050565b6000612eac612ea784612e68565b612a26565b905082815260208101848484011115612ec857612ec76129c1565b5b612ed3848285612a72565b509392505050565b600082601f830112612ef057612eef6129bc565b5b8135612f00848260208601612e99565b91505092915050565b60008060008060808587031215612f2357612f226126c7565b5b6000612f3187828801612914565b9450506020612f4287828801612914565b9350506040612f538782880161285f565b925050606085013567ffffffffffffffff811115612f7457612f736126cc565b5b612f8087828801612edb565b91505092959194509250565b600081519050919050565b600082825260208201905092915050565b6000819050602082019050919050565b6000612fc48383612cc3565b60208301905092915050565b6000602082019050919050565b6000612fe882612f8c565b612ff28185612f97565b9350612ffd83612fa8565b8060005b8381101561302e5781516130158882612fb8565b975061302083612fd0565b925050600181019050613001565b5085935050505092915050565b600060208201905081810360008301526130558184612fdd565b905092915050565b60008060408385031215613074576130736126c7565b5b600061308285828601612914565b925050602061309385828601612914565b9150509250929050565b60006101008201905081810360008301526130b8818b6127e3565b905081810360208301526130cc818a6127e3565b905081810360408301526130e081896127e3565b905081810360608301526130f481886127e3565b9050818103608083015261310881876127e3565b905061311760a0830186612c4f565b61312460c0830185612c4f565b61313160e0830184612762565b9998505050505050505050565b7f4e487b7100000000000000000000000000000000000000000000000000000000600052602260045260246000fd5b6000600282049050600182168061318557607f821691505b6020821081036131985761319761313e565b5b50919050565b7f4552433732313a20617070726f76616c20746f2063757272656e74206f776e6560008201527f7200000000000000000000000000000000000000000000000000000000000000602082015250565b60006131fa602183612797565b91506132058261319e565b604082019050919050565b60006020820190508181036000830152613229816131ed565b9050919050565b7f4552433732313a20617070726f76652063616c6c6572206973206e6f7420746f60008201527f6b656e206f776e6572206f7220617070726f76656420666f7220616c6c000000602082015250565b600061328c603d83612797565b915061329782613230565b604082019050919050565b600060208201905081810360008301526132bb8161327f565b9050919050565b7f4552433732313a2063616c6c6572206973206e6f7420746f6b656e206f776e6560008201527f72206f7220617070726f76656400000000000000000000000000000000000000602082015250565b600061331e602d83612797565b9150613329826132c2565b604082019050919050565b6000602082019050818103600083015261334d81613311565b9050919050565b7f4e487b7100000000000000000000000000000000000000000000000000000000600052601160045260246000fd5b600061338e8261283e565b91507fffffffffffffffffffffffffffffffffffffffffffffffffffffffffffffffff82036133c0576133bf613354565b5b600182019050919050565b60008190508160005260206000209050919050565b60006020601f8301049050919050565b600082821b905092915050565b60006008830261342d7fffffffffffffffffffffffffffffffffffffffffffffffffffffffffffffffff826133f0565b61343786836133f0565b95508019841693508086168417925050509392505050565b6000819050919050565b600061347461346f61346a8461283e565b61344f565b61283e565b9050919050565b6000819050919050565b61348e83613459565b6134a261349a8261347b565b8484546133fd565b825550505050565b600090565b6134b76134aa565b6134c2818484613485565b505050565b5b818110156134e6576134db6000826134af565b6001810190506134c8565b5050565b601f82111561352b576134fc816133cb565b613505846133e0565b81016020851015613514578190505b613528613520856133e0565b8301826134c7565b50505b505050565b600082821c905092915050565b600061354e60001984600802613530565b1980831691505092915050565b6000613567838361353d565b9150826002028217905092915050565b6135808261278c565b67ffffffffffffffff811115613599576135986129c6565b5b6135a3825461316d565b6135ae8282856134ea565b600060209050601f8311600181146135e157600084156135cf578287015190505b6135d9858261355b565b865550613641565b601f1984166135ef866133cb565b60005b82811015613617578489015182556001820191506020850194506020810190506135f2565b868310156136345784890151613630601f89168261353d565b8355505b6001600288020188555050505b505050505050565b6000606082019050818103600083015261366381866127e3565b9050818103602083015261367781856127e3565b90506136866040830184612c4f565b949350505050565b7f546f6b656e20646f6573206e6f74206578697374000000000000000000000000600082015250565b60006136c4601483612797565b91506136cf8261368e565b602082019050919050565b600060208201905081810360008301526136f3816136b7565b9050919050565b7f4552433732313a20696e76616c696420746f6b656e2049440000000000000000600082015250565b6000613730601883612797565b915061373b826136fa565b602082019050919050565b6000602082019050818103600083015261375f81613723565b9050919050565b7f4552433732313a2061646472657373207a65726f206973206e6f74206120766160008201527f6c6964206f776e65720000000000000000000000000000000000000000000000602082015250565b60006137c2602983612797565b91506137cd82613766565b604082019050919050565b600060208201905081810360008301526137f1816137b5565b9050919050565b600081905092915050565b600061380e8261278c565b61381881856137f8565b93506138288185602086016127a8565b80840191505092915050565b60006138408285613803565b915061384c8284613803565b91508190509392505050565b7f4f776e61626c653a206e6577206f776e657220697320746865207a65726f206160008201527f6464726573730000000000000000000000000000000000000000000000000000602082015250565b60006138b4602683612797565b91506138bf82613858565b604082019050919050565b600060208201905081810360008301526138e3816138a7565b9050919050565b7f4552433732313a207472616e736665722066726f6d20696e636f72726563742060008201527f6f776e6572000000000000000000000000000000000000000000000000000000602082015250565b6000613946602583612797565b9150613951826138ea565b604082019050919050565b6000602082019050818103600083015261397581613939565b9050919050565b7f4552433732313a207472616e7366657220746f20746865207a65726f2061646460008201527f7265737300000000000000000000000000000000000000000000000000000000602082015250565b60006139d8602483612797565b91506139e38261397c565b604082019050919050565b60006020820190508181036000830152613a07816139cb565b9050919050565b7f45524337323155524953746f726167653a2055524920736574206f66206e6f6e60008201527f6578697374656e7420746f6b656e000000000000000000000000000000000000602082015250565b6000613a6a602e83612797565b9150613a7582613a0e565b604082019050919050565b60006020820190508181036000830152613a9981613a5d565b9050919050565b7f4f776e61626c653a2063616c6c6572206973206e6f7420746865206f776e6572600082015250565b6000613ad6602083612797565b9150613ae182613aa0565b602082019050919050565b60006020820190508181036000830152613b0581613ac9565b9050919050565b7f4552433732313a20617070726f766520746f2063616c6c657200000000000000600082015250565b6000613b42601983612797565b9150613b4d82613b0c565b602082019050919050565b60006020820190508181036000830152613b7181613b35565b9050919050565b7f4552433732313a207472616e7366657220746f206e6f6e20455243373231526560008201527f63656976657220696d706c656d656e7465720000000000000000000000000000602082015250565b6000613bd4603283612797565b9150613bdf82613b78565b604082019050919050565b60006020820190508181036000830152613c0381613bc7565b9050919050565b600081519050919050565b600082825260208201905092915050565b6000613c3182613c0a565b613c3b8185613c15565b9350613c4b8185602086016127a8565b613c54816127d2565b840191505092915050565b6000608082019050613c7460008301876128d3565b613c8160208301866128d3565b613c8e6040830185612c4f565b8181036060830152613ca08184613c26565b905095945050505050565b600081519050613cba816126fd565b92915050565b600060208284031215613cd657613cd56126c7565b5b6000613ce484828501613cab565b91505092915050565b7f4e487b7100000000000000000000000000000000000000000000000000000000600052601260045260246000fd5b7f4552433732313a206d696e7420746f20746865207a65726f2061646472657373600082015250565b6000613d52602083612797565b9150613d5d82613d1c565b602082019050919050565b60006020820190508181036000830152613d8181613d45565b9050919050565b7f4552433732313a20746f6b656e20616c7265616479206d696e74656400000000600082015250565b6000613dbe601c83612797565b9150613dc982613d88565b602082019050919050565b60006020820190508181036000830152613ded81613db1565b905091905056fea264697066735822122094e4a9c23729d7d910fd54ff8105b31ef8ead76583ab6b7e9f0b35722a2e937c64736f6c63430008140033",
    "linkReferences": {},
    "deployedLinkReferences": {}
}